:1000000000308A00E02B0000FF00030E8301A100F6
:100010000A08A0008A010408A2007708A300780853
:10002000A4007908A5007A08A6007B08A70083131E
:1000300083128C308400001C1F280C1832282208E0
:1000400084002308F7002408F8002508F900260892
:10005000FA002708FB0020088A00210E8300FF0E0B
:100060007F0E09008A110A12882A8E30F70049088B
:10007000F8004808F900FA01F808031D4928790832
:10008000F800F9010830F702F808031D4928F701C4
:1000900051280310F81B5028F90DF80DF7034928D3
:1000A000F81300008A110A12162B4C080319C528F0
:1000B000D40050080319C528D407031866287F30D8
:1000C000D402031CC5280319C5286A288130D40727
:1000D0000318C5285408F700F801F901FA014D0882
:1000E000D800D8174E08D7004F08D6001830D400D3
:1000F000D501561C93285308FA07031C8528F90AD2
:10010000031D8528F80A0319D5175208F907031C9F
:100110008C28F80A0319D5175108CE00CE174E08BF
:10012000F8070318D517D50DF80CF90CFA0CD80CF4
:10013000D70CD60C0310D40B78280130F70703181E
:10014000C528F81BAA28D80DFA0DF90DF80DF703EC
:100150000319C528D81FBB28FA0A031DBB28F90AB2
:10016000031DBB28F80A031DBB28F80CF90CFA0C78
:10017000F70A0319C5284D08D5005108D506D51F23
:10018000C328F817C928F813C928F701F801F9019D
:10019000FA0100008A110A122E2B80308318D6062D
:1001A000DB01DC015208DA005608DA0651080319AF
:1001B000BA29D900F70055080319C329D902031930
:1001C0006029031C1F295608DF00DF175708DE00CF
:1001D0005808DD00DC010310DF0CDE0CDD0CDC0C4C
:1001E000D90BEA28DA1FF7285B14D7295B105910BE
:1001F0005B1654308400EC295B12DA1B0929591C68
:100200001429DF0CDE0CDD0CDC0CF70A0319D229F3
:100210001429DF1B17290310DC0DDD0DDE0DDF0DAA
:10022000F7030319D22909295B177F295B135208A9
:10023000DA00D21F1D29DF17CB29DF13CB29550880
:10024000D900F7005108D9025208DF00DF17530820
:10025000DE005408DD00DC010310DF0CDE0CDD0CD9
:10026000DC0CD90B2B29DA1F3829DB14D729DB103A
:100270005910DB1658308400EC29DB12DA1B4A29AE
:10028000591C5529DF0CDE0CDD0CDC0CF70A0319B8
:10029000D2295529DF1B58290310DC0DDD0DDE0D99
:1002A000DF0DF7030319D2294A29DB177F29DB1356
:1002B0005608DA00D61F5E29DF17CB29DF13CB29BA
:1002C0005608DF00DF175708DE005808DD00DA1F88
:1002D0006D29DF135B15D7295B11DC0159105430F0
:1002E0008400EC29DA1B95295208DA00591C7F2971
:1002F000DF0CDE0CDD0CDC0CF70A0319D229DC1F45
:100300009029DD0A031D9029DE0A031D9029DF0ACA
:10031000031D9029DF0CDE0CDD0CF70A0319D2292E
:100320005B1B1629DB1B5729B4298030DF06DF1F32
:100330009D29D7295608DA00AA295208DA00DF08D1
:10034000031DAA29DE08031DAA29DD08031DAA2909
:10035000F701CB29DF1BB4290310DC0DDD0DDE0D09
:10036000DF0DF70BAA29D229DA1FB829DF17CB290D
:10037000DF13CB295508F7005608DF005708DE00C9
:100380005808DD00CB295108F7005208DF00530858
:10039000DE005408DD005F08F8005E08F9005D0823
:1003A000FA000A2AF701F801F901FA010A2ADC0128
:1003B000DD09DE09DF09DC09DC0A031DE529DD0AA8
:1003C000031DE529DE0A0319DF0A5B18F628DB188E
:1003D00037295B196C299A290008DD07031CF629C7
:1003E000DE0A031DF629DF0A0319591484030008E5
:1003F000DE07031CFE29DF0A0319591484030008D1
:10040000801F803ADF07031859145B1AFC28DB1A97
:100410003D29722900008A110A12482B8E30F700FC
:100420005108F7025208F9005308F800F917F708C5
:100430000319252A0310F908031D212AF8080319B6
:10044000252AF90CF80CF70B1A2AD21F2C2AF809C6
:10045000F909F80A0319F90A00008A110A12532B44
:100460001030F700FA01D401D10CD00C031C3E2A45
:100470005208FA070318D40A5308D407D40CFA0C0C
:10048000F90CF80CF70B342A8A110A12B62B520811
:1004900054068039D600D21F522AD109D209D10A76
:1004A0000319D20AD41F592AD309D409D30A03192C
:1004B000D40AF801F901F701FA015408031D632A6F
:1004C000530803197D2A1030D5000310D10DD20D29
:1004D000F70DFA0D54087A02031D702A53087702AB
:1004E000031C792A5308F702031CFA035408FA0282
:1004F0000314F80DF90DD50B652A0000D61F852AC7
:10050000F809F909F80A0319F90A8A110A12C22B23
:100510000130F7002D08F8000319922A0310F70D97
:10052000F80B8E2A7708FF3AC00500308316880042
:100530008312400888002D08063C031CD62AAD0A09
:100540000130F7002D08F8000319AA2A0310F70D4F
:10055000F80BA62A7708C00400308316880083129F
:100560004008880001302D02F7000310F70D7708CE
:10057000303E8400840A0008FA0084030008003C2E
:10058000C800C9017A08031C7A0FC9020130CA00E9
:100590000030031C0130CA02CB010030031C0130C3
:1005A000CB0249088F0048088E00DC2BAD01C0014A
:1005B00000308316880083124008880008303E0708
:1005C000C7003F08C8000318C80AA330C807480876
:1005D0008F0047088E008316861483128618DC2B42
:1005E000AF012F08063C031C5B2B2F0DF700F70D06
:1005F000F70DF830F7051F08C73977049F0006305C
:10060000F700F70B012B00001F151F19052B831690
:100610001E088312AB001E08AC0003102F0D303EE5
:1006200084002C08C9002B08C80035287708C800AA
:100630007808C9007908CA007A08CB00CF00790889
:10064000CE007808CD007708CC004C30D30037308E
:10065000D2006130D1007F30D00055287708CC001F
:100660007808CD007908CE007A08CF000408D000C1
:1006700083107A08D4007908D3007808D20077086C
:10068000D100D801D7011630D6008830D500CD284A
:10069000500884007A08D4007908D3007808D20082
:1006A0007708D1000E2A840A79088000840378082C
:1006B0008000AF0AF12A32083007C7003108C800AD
:1006C0000318C80A3308C80734084707C900480890
:1006D000CA000318CA0A3508CA0736084907CB00FA
:1006E0004A08CC000318CC0A3708CC0738084B0757
:1006F000CD004C08CE000318CE0A3908CE073A08C0
:100700004D07CF004E08D0000318D00A3B08D00791
:100710003C084F07BE005008BF000318BF0A3D0841
:10072000BF078C1ED62B8C1E932B1A08C9000130D4
:100730004902F7000310F70D7708303E8400840A61
:100740000008CD0084030008CC00DC304C02CE0051
:100750004D08CF000530031C0630CF024F08D100F2
:100760004E08D000D3010230D200302A7908D000E0
:100770007808CF007908D2007808D100D4010F3072
:10078000D300472A7908C8007808C700CA014A0878
:10079000013C031CD62B47304A0784000008CB00DD
:1007A0004B080C1ED12B9900CA0AC72B43114308D2
:1007B00083168700831207110C108A110A121F2852
:1007C00084011F30830583161F149F141F159F116A
:1007D000073083129F000C30831699002630980052
:1007E000903083129800AD01DC30B0000530B100CC
:1007F000DC30B2000530B300DC30B4000530B500A9
:10080000DC30B6000530B700DC30B8000530B90088
:10081000DC30BA000530BB00DC30BC000530BD0068
:10082000BE01BF01C001C101C201FF30C300FF30E2
:1008300083168500003088001F109F101F119F1124
:100840001F1783121F179F1383169F1783121F14DE
:1008500085309000C0308B0483160C1483128F01F6
:100860008E014311430883168700831207158316F0
:1008700086148312861C662CAE012E08063C031CCF
:10088000662C01302E07C40044080C1E452C99002C
:100890008C1E482C1A08C2008C1E4C2C1A08C10051
:1008A00003102E0D303EC40041308400840A00083D
:1008B000FA0084030008C50044088400840A7A080A
:1008C0008000840345088000AE0A3D2C312C630073
:02400E00323F3F
:00000001FF
;PIC16F877A
