:1000000000308A00A32D0000FF00030E8301A10031
:100010000A08A0008A010408A2007708A300780853
:10002000A4007908A5007A08A6007B08A70083131E
:1000300083120B1E1D288B1836288C308400001C60
:1000400023280C183928220884002308F7002408E4
:10005000F8002508F9002608FA002708FB00200808
:100060008A00210E8300FF0E7F0E09008A110A12FA
:10007000392C8A110A12DD2A8E30F7006708F80041
:100080006608F900FA01F808031D50287908F800FD
:10009000F9010830F702F808031D5028F701582825
:1000A0000310F81B5728F90DF80DF7035028F81323
:1000B000000000346A080319CA28F2006E08031908
:1000C000CA28F20703186B287F30F202031CCA28E3
:1000D0000319CA286F288130F2070318CA2872084A
:1000E000F700F801F901FA016B08F600F6176C0841
:1000F000F5006D08F4001830F200F301741C982824
:100100007108FA07031C8A28F90A031D8A28F80ACD
:100110000319F3177008F907031C9128F80A03194B
:10012000F3176F08EC00EC176C08F8070318F317C7
:10013000F30DF80CF90CFA0CF60CF50CF40C03109A
:10014000F20B7D280130F7070318CA28F81BAF28E7
:10015000F60DFA0DF90DF80DF7030319CA28F61F6D
:10016000C028FA0A031DC028F90A031DC028F80A8E
:10017000031DC028F80CF90CFA0CF70A0319CA2859
:100180006B08F3006F08F306F31FC828F817CE2892
:10019000F813CE28F701F801F901FA010000003444
:1001A00080308318F3068316A201A30183126F081F
:1001B0008316A1007308A10683126E080319CD29C6
:1001C0008316A000F70072080319D729A0020319AB
:1001D0006E29031C29297308A600A6177408A50018
:1001E0007508A400A3010310A60CA50CA40CA30C75
:1001F000A00BF228A11FFF282214ED2922102010A5
:10020000221671308400022A2212A11B1129201CFF
:100210001C29A60CA50CA40CA30CF70A0319E829A9
:100220001C29A61B1F290310A30DA40DA50DA60DA7
:10023000F7030319E829112922178F2922138312A2
:100240006F088316A100A11F2729A617E129A6136D
:10025000E1297208A000F70083126E088316A0023D
:1002600083126F088316A600A6177008A5007108F0
:10027000A400A3010310A60CA50CA40CA30CA00BB6
:100280003929A11F4629A214ED29A2102010A21677
:1002900075308400022AA212A11B5829201C632950
:1002A000A60CA50CA40CA30CF70A0319E8296329D2
:1002B000A61B66290310A30DA40DA50DA60DF7031B
:1002C0000319E8295829A2178F29A2137308A1003E
:1002D000A11F6C29A617E129A613E1297308A6001E
:1002E000A6177408A5007508A400A11F7B29A613F2
:1002F0002215ED292211A301201071308400022A59
:10030000A11BA52983126F088316A100201C8F2929
:10031000A60CA50CA40CA30CF70A0319E829A31F2B
:10032000A029A40A031DA029A50A031DA029A60A25
:10033000031DA029A60CA50CA40CF70A0319E82993
:10034000221B1E29A21B6529C6298030A606A61FCE
:10035000AD29ED297308A100BC2983126F0883160B
:10036000A100A608031DBC29A508031DBC29A408DB
:10037000031DBC29F701E129A61BC6290310A30D03
:10038000A40DA50DA60DF70BBC29E829A11FCA29AC
:10039000A617E129A613E12983127208F700730852
:1003A0008316A6007408A5007508A400E12983122D
:1003B0006E08F7006F088316A6007008A500710884
:1003C000A4002608F8002508F9002408FA00202ACD
:1003D000F701F801F901FA01202AA301A409A509EE
:1003E000A609A309A30A031DFB29A40A031DFB29CF
:1003F000A50A0319A60A2218FE28A21845292219BF
:100400007A29AA290008A407031C0C2AA50A031D9F
:100410000C2AA60A0319201484030008A507031C4C
:10042000142AA60A0319201484030008801F803AA6
:10043000A60703182014221A0429A21A4B2980297E
:100440000000831200348E30F7006E08F7026F0848
:10045000F9007008F800F917F70803193A2A031091
:10046000F908031D362AF80803193A2AF90CF80C82
:10047000F70B2F2AEF1F412AF809F909F80A031987
:10048000F90A000000340830F8000000000087116D
:10049000A8112808831687000000F40D83120712A4
:1004A000031C582A28162808831687005C2A831202
:1004B000281228088316870000008312A815280830
:1004C0008316870083128719672A8316622AF80B1E
:1004D000452A00008711A81128088316870000000C
:1004E0008312281628088316870000000000831254
:1004F000A81528088316870083128719812A831676
:100500007C2AF8010000071A78148711A81128081E
:100510008316870083120712281228088316870083
:10052000831200340830D8007708D900281628082C
:100530008316870000008312A815280883168700F9
:1005400083128719A52A8316A02A071A0314071EE7
:100550000310F80D0000A8112808831687008312E5
:100560008711D80B962A28162808831687000000C2
:100570008312071259080319C22A28122808831661
:10058000870083120000A8152808831687008312AD
:100590008719CC2A8316C72A00008711A8112808BA
:1005A000831687000000831207122812280883167A
:1005B000870083128A110A120A2C0130F7002E08D4
:1005C000F8000319E72A0310F70DF80BE32A770860
:1005D000FF3ABF0500308316880083123F08880069
:1005E0002E08063C031C342BAF08031DFD2A2811DE
:1005F00028088316870083120711AE0A0130F7001E
:100600002E08F8000319082B0310F70DF80B042B24
:100610007708BF0400308316880083123F088800E3
:1006200001302E02F7000310F70D7708313E8400E9
:10063000840A0008FA0084030008003CCD00CE01C3
:100640007A08031C7A0FCE020130CF000030031C61
:100650000130CF02D0010030031C0130D0024E081F
:100660008F004D088E00352CAE01BF01003083167F
:10067000880083123F088800D8308F00F0308E0049
:100680008316861483128618352CB0013008053C79
:10069000031CB02B300DF700F70DF70DF830F70500
:1006A0001F08C73977049F000630F700F70B562B59
:1006B00000001F151F195A2B83161E088312AC0049
:1006C0001E08AD000310300D313E84002D08E700F8
:1006D0002C08E6003C207708CD007808CE00790889
:1006E000CF007A08D000ED007908EC007808EB0024
:1006F0007708EA00AE30F1004730F0006130EF00DB
:100700007F30EE005A207708D1007808D2007908AF
:10071000D3007A08D4000408D50083107A08F100C9
:100720007908F0007808EF007708EE00F501F40191
:100730001630F3008830F200D020550884007A0883
:10074000F1007908F0007808EF007708EE00232226
:10075000840A79088000840378088000B00A462B58
:100760004208CD004108CC00CE014E08013C031CDC
:100770002D2C4F304E07D1004E084C07D2004D08AB
:10078000D3000318D30A5308D5005208D400281602
:1007900028088316870000008312A81528088316EE
:1007A000870000008312071228122808831687008A
:1007B000000083128711A811280883168700A03033
:1007C000F400831243225508D700D8015508F400DD
:1007D00043225408F4004322281628088316870071
:1007E00000008312A81528088316870000008312D2
:1007F0000712281228088316870000008312871129
:10080000A811280883168700A130F4008312432220
:10081000F701922A7808D600281228088316870044
:1008200000008312A81528088316870083128719F1
:100830001B2C8316162C0000000000000000281658
:10084000280883168700000083125608F800510814
:10085000840078088000CE0AB52B4F08F8005008B5
:10086000F9007908BE007808BD000C108A110A1240
:1008700023283030F8001F08C73978049F0006305D
:10088000F700F70B412C00001F151F19452C83168C
:100890001E088312AC001E08AD002D08E7002C08CE
:1008A000E6003C207708E6007808E7007908E800D1
:1008B0007A08E900ED007908EC007808EB00770889
:1008C000EA00AE30F1004730F0006130EF007F30D9
:1008D000EE005A207708EA007808EB007908EC006F
:1008E0007A08ED0083107A08F1007908F0007808A2
:1008F000EF007708EE00F501F4011630F3008830C0
:10090000F200D0207A08F1007908F0007808EF00B2
:100910007708EE0023227908AD007808AC00023099
:10092000C1070318C20A4208E7004108E6002D0883
:10093000E9002C08E800EA016A08013C031C402D8C
:100940006A086607EB006708EC000318EC0A6830D9
:100950006A0784000008ED006C08EF006B08EE00E9
:100960006D08F000281628088316870000008312FF
:10097000A815280883168700000083120712281282
:10098000280883168700000083128711A811280801
:1009900083168700A030F400831243226F08F20010
:1009A000F3016F08F40043226E08F400432270083C
:1009B000F4004322281228088316870000008312BF
:1009C000A81528088316870083128719E92C831637
:1009D000E42C000000000000000028162808831600
:1009E000870000008312281628088316870000005D
:1009F0008312A815280883168700000083120712A7
:100A00002812280883168700000083128711A81176
:100A1000280883168700A030F40083124322780848
:100A20007818142D7110152D7114003071180130C3
:100A3000013C031D3E2D2816280883168700000060
:100A40008312A81528088316870000008312071256
:100A50002812280883168700000083128711A81126
:100A6000280883168700A030F400831243227808F8
:100A700078183C2D71103D2D7114152DEA0A9C2C0F
:100A80008B108A110A1223288316871507168312E2
:100A90008A110A12EF2D1030F700FA01C801C50CB7
:100AA000C40C031C592D4608FA070318C80A470846
:100AB000C807C80CFA0CF90CF80CF70B4F2D8A116B
:100AC0000A12252E470849068039CB00C71F6D2D15
:100AD000C609C709C60A0319C70AC91F742DC80960
:100AE000C909C80A0319C90AF801F901F701FA018D
:100AF0004908031D7E2D48080319982D1030CA009F
:100B00000310C60DC70DF70DFA0D49087A02031D33
:100B10008B2D48087702031C942D4808F702031C0C
:100B2000FA034908FA020314F80DF90DCA0B802DD7
:100B30000000CB1FA02DF809F909F80A0319F90ADA
:100B40008A110A12312E84011F30830583161F1467
:100B50009F141F159F11073083129F000C308316BE
:100B6000990026309800903083129800FF30A8003A
:100B7000AE01DC30B1000530B200DC30B30005302E
:100B8000B400DC30B5000530B600DC30B70005300D
:100B9000B800DC30B9000530BA00DC30BB000530ED
:100BA000BC00DC30BD000530BE00BF01C001C1018A
:100BB000C201FF3083168500003088001F109F108F
:100BC0001F119F111F1783121F179F1383169F1743
:100BD00083121F1485309000C0308B04442D0B16F7
:100BE00083160C1483128F018E0128112808831696
:100BF000870083120715831686148312861C3D2EE8
:100C0000AF012F08063C031C3D2E01302F07C30007
:100C100043080C1E092E99008C1E0C2E1A08FA018E
:100C2000AA007A08AB006430AA020030031C01302D
:100C3000AB0203102F0D313E84002B08C5002A089B
:100C4000C400C7010F30C6004B2D7908C5007808D5
:100C5000C4007908C7007808C600C9010230C8007E
:100C6000622DDC3078078000840A79088000031840
:0E0C7000800A05308007AF0A012EF52D6300C3
:02400E00323F3F
:00000001FF
;PIC16F877A
