:1000000000308A00942B0000FF00030E8301A10042
:100010000A08A0008A010408A2007708A300780853
:10002000A4007908A5007A08A6007B08A70083131E
:1000300083128C308400001C1F280C1832282208E0
:1000400084002308F7002408F8002508F900260892
:10005000FA002708FB0020088A00210E8300FF0E0B
:100060007F0E09008A110A122F2A8E30F7005008DD
:10007000F8004F08F900FA01F808031D492879082B
:10008000F800F9010830F702F808031D4928F701C4
:1000900051280310F81B5028F90DF80DF7034928D3
:1000A000F8138A110A12AE2A53080319C428DB0078
:1000B00057080319C428DB07031865287F30DB02C3
:1000C000031CC4280319C42869288130DB070318DE
:1000D000C4285B08F700F801F901FA015408DF00B1
:1000E000DF175508DE005608DD001830DB00DC01A4
:1000F0005D1C92285A08FA07031C8428F90A031D7C
:100100008428F80A0319DC175908F907031C8B28FF
:10011000F80A0319DC175808D500D5175508F80751
:100120000318DC17DC0DF80CF90CFA0CDF0CDE0CF4
:10013000DD0C0310DB0B77280130F7070318C42808
:10014000F81BA928DF0DFA0DF90DF80DF7030319B7
:10015000C428DF1FBA28FA0A031DBA28F90A031DAA
:10016000BA28F80A031DBA28F80CF90CFA0CF70A99
:100170000319C4285408DC005808DC06DC1FC22818
:10018000F817C828F813C828F701F801F901FA018F
:100190008A110A12C62A80308318DE06E301E401C0
:1001A0005A08E2005E08E20659080319BB29E1007B
:1001B000F7005D080319C429E10203196029031C33
:1001C0001E295E08E700E7175F08E6006008E50003
:1001D000E4010310E70CE60CE50CE40CE10BE82865
:1001E000E21FF5286314D8296310611063165C3090
:1001F00084008313ED296312E21B0829611C132973
:10020000E70CE60CE50CE40CF70A0319D3291329D3
:10021000E71B16290310E40DE50DE60DE70DF703C6
:100220000319D32908296317802963135A08E200A8
:10023000E21F1C29E717CC29E713CC295D08E10050
:10024000F7005908E1025A08E700E7175B08E600E3
:100250005C08E500E4010310E70CE60CE50CE40C97
:10026000E10B2A29E21F3729E314D829E310611092
:10027000E316603084008313ED29E312E21B4A2960
:10028000611C5529E70CE60CE50CE40CF70A031990
:10029000D3295529E71B58290310E40DE50DE60D78
:1002A000E70DF7030319D3294A29E3178029E3133C
:1002B0005E08E200E21F5E29E717CC29E713CC298C
:1002C0005E08E700E7175F08E6006008E500E21F48
:1002D0006D29E7136315D8296311E40161105C30BF
:1002E00084008313ED29E21B96295A08E200611C61
:1002F0008029E70CE60CE50CE40CF70A0319D32976
:10030000E41F9129E50A031D9129E60A031D91299D
:10031000E70A031D9129E70CE60CE50CF70A03191F
:10032000D329631B1529E31B5729B5298030E7061C
:10033000E71F9E29D8295E08E200AB295A08E2008F
:10034000E708031DAB29E608031DAB29E508031DDB
:10035000AB29F701CC29E71BB5290310E40DE50D06
:10036000E60DE70DF70BAB29D329E21FB929E717F3
:10037000CC29E713CC295D08F7005E08E7005F0889
:10038000E6006008E500CC295908F7005A08E700A4
:100390005B08E6005C08E5006708F8006608F900FD
:1003A0006508FA000B2AF701F801F901FA010B2A96
:1003B000E401E509E609E709E409E40A031DE62981
:1003C000E50A031DE629E60A0319E70A6318F4287B
:1003D000E318362963196C299B290008E507031CDB
:1003E000F729E60A031DF729E70A031961148403B4
:1003F0000008E607031CFF29E70A031961148403B8
:100400000008801F803AE70703186114631AFB286D
:10041000E31A3D2973298A110A12E42A8E30F70063
:100420005908F7025A08F9005B08F800F917F708AD
:100430000319252A0310F908031D212AF8080319B6
:10044000252AF90CF80CF70B1A2ADA1F2C2AF809BE
:10045000F909F80A0319F90A8A110A12F22A013075
:100460002C02CD000130F7004D08F80003193C2A9A
:100470000310F70DF80B382A7708FF3ABF058316EB
:10048000880183123F0888002C08063C031C7B2A45
:100490000130F7002C08F8000319522A0310F70D59
:1004A000F80B4E2A7708BF048316880183123F0891
:1004B000880003102C0D2F3E84008313840A00084B
:1004C000FA0084030008003CCD00CE017A08031C2A
:1004D0007A0FCE020130CF000030031C0130CF0272
:1004E000D0010030031C0130D0024E088F004D08AF
:1004F0008E00AC0A3D2BAC01BF018316880183122C
:100500003F0888008316861483128618302BAE01AC
:100510002E08033C031CFA2A2E0DF700F70DF70DE9
:10052000F830F7051F08C73977049F000630F70039
:10053000F70B982A00001F151F199C2A83161E0806
:100540008312AA001E08AB0003102E0D2F3E84005C
:1005500083132B08D0002A08CF0035287708CF0056
:100560007808D0007908D1007A08D200D60079083E
:10057000D5007808D4007708D3004730DA00383047
:10058000D9006130D8007F30D70054287708D300D5
:100590007808D4007908D5007A08D600D801040874
:1005A000D7005810831B581483107A08DC00790890
:1005B000DB007808DA007708D900E001DF017A3043
:1005C000DE008730DD00CB285708840083135818DD
:1005D00083177A08DC007908DB007808DA007708EE
:1005E000D9000E2A840A79088000840378088000E4
:1005F000AE0A882A31082F07CD003008CE00320815
:100600000318320FCE0733084D07CF004E08D00035
:1006100034080318340FD00735084F07D1005008AD
:10062000D20036080318360FD20737085107D30017
:100630005208D40038080318380FD4073908530774
:10064000D5005408D6003A0803183A0FD6073B08DD
:100650005507BD005608BE003C0803183C0FBE07F6
:1006600098303D07CD003E08CE00B7300318B830B3
:10067000CE074E088F004D088E000C108A110A120A
:100680001F281030CA00F701FA01C70CC60C031C62
:100690004F2B4808F7070318FA0A4908FA07FA0C1B
:1006A000F70CF90CF80CCA0B452B003448084A0625
:1006B0008039CC00C81F612BC709C809C70A0319B4
:1006C000C80ACA1F682BC909CA09C90A0319CA0A74
:1006D000F801F901F701FA014A08031D722B4908D4
:1006E00003198C2B1030CB000310C70DC80DF70D6C
:1006F000FA0D4A087A02031D7F2B49087702031C72
:10070000882B4908F702031CFA034A08FA0203146B
:10071000F80DF90DCB0B742BCC1F932BF809F909AD
:10072000F80A0319F90A0034840183131F30830582
:100730000C3083169900A6309800903083129800F0
:1007400083161F149F141F159F1107309C008312DE
:10075000AC01DC30AF000530B000DC30B10005305A
:10076000B200DC30B3000530B400DC30B500053039
:10077000B600DC30B7000530B800DC30B900053019
:10078000BA00DC30BB000530BC00BD01BE01BF01BA
:10079000FF30C100FF3083168500003088001F1035
:1007A0009F101F119F111F1783121F179F1383166E
:1007B0009F1783121F140E30F7000730810181301C
:1007C000840083130008F0390738800064000008B3
:1007D000F739F719F0397704800085309000C03080
:1007E0008B0483160C1483128F018E016400831610
:1007F00086148312861C782C4111410883168700C9
:1008000083120715AD012D08033C031C412C013058
:100810002D07C20064000C1E0A2C990064008C1E77
:100820000E2C1A08FA01A8007A08A9006430A80260
:100830000030031C0130A90203102D0D2F3E84004F
:1008400083132908C7002808C600C9010F30C80053
:1008500041237908C5007808C4007908C8007808E1
:10086000C700CA010230C9005623DC307807800077
:10087000840A790880000530031806308007AD0A25
:10088000032C31082F07C2003008C30032080318B8
:10089000320FC30733084207C4004308C5003408B9
:1008A0000318340FC50735084407C6004508C700BC
:1008B00036080318360FC70737084607C800470829
:1008C000C90038080318380FC90739084807CA0093
:1008D0004908CB003A0803183A0FCB073B084A07F0
:1008E000BD004B08BE003C0803183C0FBE07CF2CD0
:1008F000411141088316870083120711AD012D08AD
:10090000033C031CCF2C03102D0D2F3E84008313BA
:10091000840A0008C30084030008C200DC304202DD
:10092000F7004308FA000530031C0630FA02770886
:10093000C4007A08C500C7007708C600C9010230A4
:10094000C80041237908C6007808C5007908C800A6
:100950007808C700CA010F30C90056237808C600BE
:1009600079307807F8007908FA000318FA0A78084D
:10097000C00001302D07C20064000C1EBC2C990081
:10098000400864000C1EC12C990064008C1EC52C0C
:100990001A08FA01A8007A08A900AD0A7F2CF62BE4
:0209A0006300F2
:02400E00353F3C
:00000001FF
;PIC16F877A
