:1000000000308A00002C0000FF00030E8301A100D5
:100010000A08A0008A010408A2007708A300780853
:10002000A4007908A5007A08A6007B08A70083131E
:1000300083128C308400001C1F280C1832282208E0
:1000400084002308F7002408F8002508F900260892
:10005000FA002708FB0020088A00210E8300FF0E0B
:100060007F0E09008A110A12842A8E30F700500888
:10007000F8004F08F900FA01F808031D492879082B
:10008000F800F9010830F702F808031D4928F701C4
:1000900051280310F81B5028F90DF80DF7034928D3
:1000A000F81300008A110A12112B53080319C528EE
:1000B000DB0057080319C528DB07031866287F30C3
:1000C000DB02031CC5280319C5286A288130DB0719
:1000D0000318C5285B08F700F801F901FA01540874
:1000E000DF00DF175508DE005608DD001830DB00A2
:1000F000DC015D1C93285A08FA07031C8528F90ABD
:10010000031D8528F80A0319DC175908F907031C91
:100110008C28F80A0319DC175808D500D51755089C
:10012000F8070318DC17DC0DF80CF90CFA0CDF0CDF
:10013000DE0CDD0C0310DB0B78280130F707031809
:10014000C528F81BAA28DF0DFA0DF90DF80DF703E5
:100150000319C528DF1FBB28FA0A031DBB28F90AAB
:10016000031DBB28F80A031DBB28F80CF90CFA0C78
:10017000F70A0319C5285408DC005808DC06DC1F00
:10018000C328F817C928F813C928F701F801F9019D
:10019000FA0100008A110A12292B80308318DD062B
:1001A000E201E3015908E1005D08E106580803197E
:1001B000BA29E000F7005C080319C329E00203191B
:1001C0006029031C1F295D08E600E6175E08E500AC
:1001D0005F08E400E3010310E60CE50CE40CE30C1B
:1001E000E00BEA28E11FF7286214D729621060109B
:1001F00062165B308400EC296212E11B0929601C45
:100200001429E60CE50CE40CE30CF70A0319D229D7
:100210001429E61B17290310E30DE40DE50DE60D87
:10022000F7030319D229092962177F296213590894
:10023000E100D91F1D29E617CB29E613CB295C085D
:10024000E000F7005808E0025908E600E6175A08EF
:10025000E5005B08E400E3010310E60CE50CE40CA8
:10026000E30CE00B2B29E11F3829E214D729E21017
:100270006010E2165F308400EC29E212E11B4A298B
:10028000601C5529E60CE50CE40CE30CF70A031995
:10029000D2295529E61B58290310E30DE40DE50D7D
:1002A000E60DF7030319D2294A29E2177F29E21341
:1002B0005D08E100DD1F5E29E617CB29E613CB2997
:1002C0005D08E600E6175E08E5005F08E400E11F50
:1002D0006D29E6136215D7296211E30160105B30C6
:1002E0008400EC29E11B95295908E100601C7F2955
:1002F000E60CE50CE40CE30CF70A0319D229E31F22
:100300009029E40A031D9029E50A031D9029E60AB5
:10031000031D9029E60CE50CE40CF70A0319D22919
:10032000621B1629E21B5729B4298030E606E61F16
:100330009D29D7295D08E100AA295908E100E608AE
:10034000031DAA29E508031DAA29E408031DAA29FB
:10035000F701CB29E61BB4290310E30DE40DE50DED
:10036000E60DF70BAA29D229E11FB829E617CB29F8
:10037000E613CB295C08F7005D08E6005E08E5009F
:100380005F08E400CB295808F7005908E6005A082E
:10039000E5005B08E4006608F8006508F9006408F9
:1003A000FA000A2AF701F801F901FA010A2AE30121
:1003B000E409E509E609E309E30A031DE529E40A7E
:1003C000031DE529E50A0319E60A6218F628E21872
:1003D000372962196C299A290008E407031CF629B9
:1003E000E50A031DF629E60A0319601484030008D0
:1003F000E507031CFE29E60A0319601484030008BC
:10040000801F803AE60703186014621AFC28E21A7B
:100410003D29722900008A110A12432B8E30F70001
:100420005808F7025908F9005A08F800F917F708B0
:100430000319252A0310F908031D212AF8080319B6
:10044000252AF90CF80CF70B1A2AD91F2C2AF809BF
:10045000F909F80A0319F90A00008A110A124E2B49
:100460001030F700FA01DA01D70CD60C031C3E2A33
:100470005808FA070318DA0A5908DA07DA0CFA0CEE
:10048000F90CF80CF70B342A003458085A06803956
:10049000DC00D81F502AD709D809D70A0319D80A6F
:1004A000DA1F572AD909DA09D90A0319DA0AF80131
:1004B000F901F701FA015A08031D612A59080319C5
:1004C0007B2A1030DB000310D70DD80DF70DFA0D85
:1004D0005A087A02031D6E2A59087702031C772AEC
:1004E0005908F702031CFA035A08FA020314F80D1C
:1004F000F90DDB0B632A0000DC1F832AF809F909D8
:10050000F80A0319F90A003401302E02CE00013036
:10051000F7004E08F8000319912A0310F70DF80BA5
:100520008D2A7708FF3AC1050030831688008312B0
:10053000410888002E08063C031CD12A0130F70030
:100540002E08F8000319A82A0310F70DF80BA42AA7
:100550007708C104003083168800831241088800A0
:1005600003102E0D313E8400840A0008FA00840333
:100570000008003CCE00CF017A08031C7A0FCF029E
:100580000130D0000030031C0130D002D101003016
:10059000031C0130D1024F088F004E088E00AE0AB6
:1005A000FC2BAE01C1010030831688008312410884
:1005B000880010303F07CE004008CF000318CF0A54
:1005C0007830CF074F088F004E088E0083168614B0
:1005D00083128618FC2BB0013008063C031C882BC4
:1005E000300DF700F70DF70DF830F7051F08C73984
:1005F00077049F000630F700F70BFC2A00001F1558
:100600001F19002B83161E088312AC001E08AD00B4
:100610000310300D313E84002D08D0002C08CF008F
:1006200035287708CF007808D0007908D1007A08FB
:10063000D200D6007908D5007808D4007708D30016
:100640004C30DA003730D9006130D8007F30D70025
:1006500055287708D3007808D4007908D5007A089F
:10066000D6000408D70083107A08DB007908DA0086
:100670007808D9007708D800DF01DE011630DD00E8
:100680008830DC00CD28570884007A08DB00790820
:10069000DA007808D9007708D8000E2A840A790889
:1006A00080008403780880000310300D313E840000
:1006B000840A0008CF0084030008CE00DC304E021C
:1006C000D0004F08D1000530031C0630D10251087C
:1006D000D7005008D600D9010230D800302279085E
:1006E000D2007808D1007908D8007808D700DA015C
:1006F0000F30D90045227808D20079307807F80009
:100700007908FA000318FA0A7808CD00B00AEC2A32
:1007100033083107CE003208CF000318CF0A34085F
:10072000CF0735084E07D0004F08D1000318D10A73
:100730003608D10737085007D2005108D3000318F4
:10074000D30A3808D30739085207D4005308D50014
:100750000318D50A3A08D5073B085407D6005508B0
:10076000D7000318D70A3C08D7073D085607BF0033
:100770005708C0000318C00A3E08C0078C1EF62B9D
:100780008C1EC02B1A08CF0001304F02F700031057
:10079000F70D7708313E8400840A0008D3008403F3
:1007A0000008D200DC305202D4005308D5000530D6
:1007B000031C0630D5025508D7005408D600D901CD
:1007C0000230D80030227908D6007808D5007908A0
:1007D000D8007808D700DA010F30D90045227930E7
:1007E0007807CE004E080C1EF32B990042114208E8
:1007F00083168700831207110C108A110A121F2812
:1008000084011F30830583161F149F141F159F1129
:10081000073083129F000C30831699002630980011
:10082000903083129800AE01DC30B1000530B20088
:10083000DC30B3000530B400DC30B5000530B60064
:10084000DC30B7000530B800DC30B9000530BA0044
:10085000DC30BB000530BC00DC30BD000530BE0024
:10086000BF01C001C101FF30C200FF308316850007
:10087000003088001F109F101F119F111F17831237
:100880001F179F1383169F1783121F148530900024
:10089000C0308B0483160C1483128F018E01421119
:1008A0004208831687008312071583168614831265
:1008B000861CD92CAF012F08063C031CA32C013049
:1008C0002F07C30043080C1E632C99008C1E662C56
:1008D0001A08FA01AA007A08AB006430AA020030B4
:1008E000031C0130AB0203102F0D313E8400A80120
:1008F0008B1BA8178B132B08D7002A08D600D90109
:100900000F30D8003022A81B8B177908C500780853
:10091000C400A8018B1BA8178B137908D80078088E
:10092000D700DA010230D9004522A81B8B17DC3032
:1009300078078000840A790880000318800A05304F
:100940008007AF0A5B2C33083107C3003208C400AC
:100950000318C40A3408C40735084307C50044080F
:10096000C6000318C60A3608C60737084507C70079
:100970004608C8000318C80A3808C80739084707D6
:10098000C9004808CA000318CA0A3A08CA073B083F
:100990004907CB004A08CC000318CC0A3C08CC0716
:1009A0003D084B07BF004C08C0000318C00A3E08B2
:0609B000C0074F2C63009C
:02400E00323F3F
:00000001FF
;PIC16F877A
